{
  "contractName": "BasicToken",
  "abi": [
    {
      "constant": true,
      "inputs": [],
      "name": "name",
      "outputs": [
        {
          "name": "",
          "type": "string"
        }
      ],
      "payable": false,
      "stateMutability": "view",
      "type": "function"
    },
    {
      "constant": true,
      "inputs": [],
      "name": "totalSupply",
      "outputs": [
        {
          "name": "",
          "type": "uint256"
        }
      ],
      "payable": false,
      "stateMutability": "view",
      "type": "function"
    },
    {
      "constant": true,
      "inputs": [],
      "name": "decimals",
      "outputs": [
        {
          "name": "",
          "type": "uint8"
        }
      ],
      "payable": false,
      "stateMutability": "view",
      "type": "function"
    },
    {
      "constant": true,
      "inputs": [],
      "name": "treasury",
      "outputs": [
        {
          "name": "",
          "type": "address"
        }
      ],
      "payable": false,
      "stateMutability": "view",
      "type": "function"
    },
    {
      "constant": true,
      "inputs": [],
      "name": "owner",
      "outputs": [
        {
          "name": "",
          "type": "address"
        }
      ],
      "payable": false,
      "stateMutability": "view",
      "type": "function"
    },
    {
      "constant": true,
      "inputs": [],
      "name": "symbol",
      "outputs": [
        {
          "name": "",
          "type": "string"
        }
      ],
      "payable": false,
      "stateMutability": "view",
      "type": "function"
    },
    {
      "inputs": [],
      "payable": false,
      "stateMutability": "nonpayable",
      "type": "constructor"
    },
    {
      "payable": true,
      "stateMutability": "payable",
      "type": "fallback"
    },
    {
      "anonymous": false,
      "inputs": [
        {
          "indexed": true,
          "name": "from",
          "type": "address"
        },
        {
          "indexed": true,
          "name": "to",
          "type": "address"
        },
        {
          "indexed": false,
          "name": "value",
          "type": "uint256"
        }
      ],
      "name": "Transfer",
      "type": "event"
    },
    {
      "constant": true,
      "inputs": [
        {
          "name": "_tokenholder",
          "type": "address"
        }
      ],
      "name": "balanceOf",
      "outputs": [
        {
          "name": "balance",
          "type": "uint256"
        }
      ],
      "payable": false,
      "stateMutability": "view",
      "type": "function"
    },
    {
      "constant": false,
      "inputs": [
        {
          "name": "_to",
          "type": "address"
        },
        {
          "name": "_value",
          "type": "uint256"
        }
      ],
      "name": "transfer",
      "outputs": [
        {
          "name": "",
          "type": "bool"
        }
      ],
      "payable": false,
      "stateMutability": "nonpayable",
      "type": "function"
    },
    {
      "constant": false,
      "inputs": [
        {
          "name": "_from",
          "type": "address"
        },
        {
          "name": "_to",
          "type": "address"
        },
        {
          "name": "_value",
          "type": "uint256"
        }
      ],
      "name": "transferFrom",
      "outputs": [
        {
          "name": "",
          "type": "bool"
        }
      ],
      "payable": false,
      "stateMutability": "nonpayable",
      "type": "function"
    },
    {
      "constant": true,
      "inputs": [
        {
          "name": "holder",
          "type": "address"
        }
      ],
      "name": "transferableTokens",
      "outputs": [
        {
          "name": "",
          "type": "uint256"
        }
      ],
      "payable": false,
      "stateMutability": "view",
      "type": "function"
    }
  ],
  "bytecode": "0x608060405234801561001057600080fd5b50336000806101000a81548173ffffffffffffffffffffffffffffffffffffffff021916908373ffffffffffffffffffffffffffffffffffffffff16021790555033600160006101000a81548173ffffffffffffffffffffffffffffffffffffffff021916908373ffffffffffffffffffffffffffffffffffffffff160217905550601260ff16600a0a6103e80260028190555060025460036000600160009054906101000a900473ffffffffffffffffffffffffffffffffffffffff1673ffffffffffffffffffffffffffffffffffffffff1673ffffffffffffffffffffffffffffffffffffffff16815260200190815260200160002081905550600160009054906101000a900473ffffffffffffffffffffffffffffffffffffffff1673ffffffffffffffffffffffffffffffffffffffff16600073ffffffffffffffffffffffffffffffffffffffff167fddf252ad1be2c89b69c2b068fc378daa952ba7f163c4a11628f55a4df523b3ef6002546040518082815260200191505060405180910390a36111a7806101a56000396000f3fe6080604052600436106100915760003560e01c806370a082311161005957806370a082311461026c578063772fe14e146102d15780638da5cb5b1461033657806395d89b411461038d578063a9059cbb1461041d57610091565b806306fdde031461009657806318160ddd1461012657806323b872dd14610151578063313ce567146101e457806361d027b314610215575b600080fd5b3480156100a257600080fd5b506100ab610490565b6040518080602001828103825283818151815260200191508051906020019080838360005b838110156100eb5780820151818401526020810190506100d0565b50505050905090810190601f1680156101185780820380516001836020036101000a031916815260200191505b509250505060405180910390f35b34801561013257600080fd5b5061013b6104c9565b6040518082815260200191505060405180910390f35b34801561015d57600080fd5b506101ca6004803603606081101561017457600080fd5b81019080803573ffffffffffffffffffffffffffffffffffffffff169060200190929190803573ffffffffffffffffffffffffffffffffffffffff169060200190929190803590602001909291905050506104cf565b604051808215151515815260200191505060405180910390f35b3480156101f057600080fd5b506101f9610a60565b604051808260ff1660ff16815260200191505060405180910390f35b34801561022157600080fd5b5061022a610a65565b604051808273ffffffffffffffffffffffffffffffffffffffff1673ffffffffffffffffffffffffffffffffffffffff16815260200191505060405180910390f35b34801561027857600080fd5b506102bb6004803603602081101561028f57600080fd5b81019080803573ffffffffffffffffffffffffffffffffffffffff169060200190929190505050610a8b565b6040518082815260200191505060405180910390f35b3480156102dd57600080fd5b50610320600480360360208110156102f457600080fd5b81019080803573ffffffffffffffffffffffffffffffffffffffff169060200190929190505050610ad4565b6040518082815260200191505060405180910390f35b34801561034257600080fd5b5061034b610ae6565b604051808273ffffffffffffffffffffffffffffffffffffffff1673ffffffffffffffffffffffffffffffffffffffff16815260200191505060405180910390f35b34801561039957600080fd5b506103a2610b0b565b6040518080602001828103825283818151815260200191508051906020019080838360005b838110156103e25780820151818401526020810190506103c7565b50505050905090810190601f16801561040f5780820380516001836020036101000a031916815260200191505b509250505060405180910390f35b34801561042957600080fd5b506104766004803603604081101561044057600080fd5b81019080803573ffffffffffffffffffffffffffffffffffffffff16906020019092919080359060200190929190505050610b44565b604051808215151515815260200191505060405180910390f35b6040518060400160405280600781526020017f426974636f696e0000000000000000000000000000000000000000000000000081525081565b60025481565b60008073ffffffffffffffffffffffffffffffffffffffff168473ffffffffffffffffffffffffffffffffffffffff161415610556576040517f08c379a000000000000000000000000000000000000000000000000000000000815260040180806020018281038252602a81526020018061111d602a913960400191505060405180910390fd5b3073ffffffffffffffffffffffffffffffffffffffff168473ffffffffffffffffffffffffffffffffffffffff1614156105db576040517f08c379a00000000000000000000000000000000000000000000000000000000081526004018080602001828103825260268152602001806110f76026913960400191505060405180910390fd5b8373ffffffffffffffffffffffffffffffffffffffff168373ffffffffffffffffffffffffffffffffffffffff161415610660576040517f08c379a000000000000000000000000000000000000000000000000000000000815260040180806020018281038252602f8152602001806110c8602f913960400191505060405180910390fd5b600073ffffffffffffffffffffffffffffffffffffffff168373ffffffffffffffffffffffffffffffffffffffff1614156106e6576040517f08c379a000000000000000000000000000000000000000000000000000000000815260040180806020018281038252602b81526020018061109d602b913960400191505060405180910390fd5b3073ffffffffffffffffffffffffffffffffffffffff168373ffffffffffffffffffffffffffffffffffffffff16141561076b576040517f08c379a00000000000000000000000000000000000000000000000000000000081526004018080602001828103825260358152602001806111476035913960400191505060405180910390fd5b61077484610ad4565b82111561078057600080fd5b600360008573ffffffffffffffffffffffffffffffffffffffff1673ffffffffffffffffffffffffffffffffffffffff1681526020019081526020016000205482600360008773ffffffffffffffffffffffffffffffffffffffff1673ffffffffffffffffffffffffffffffffffffffff16815260200190815260200160002054031115610859576040517f08c379a000000000000000000000000000000000000000000000000000000000815260040180806020018281038252602d815260200180611017602d913960400191505060405180910390fd5b81600360008573ffffffffffffffffffffffffffffffffffffffff1673ffffffffffffffffffffffffffffffffffffffff1681526020019081526020016000205401600360008573ffffffffffffffffffffffffffffffffffffffff1673ffffffffffffffffffffffffffffffffffffffff1681526020019081526020016000205411156108e657600080fd5b81600360008673ffffffffffffffffffffffffffffffffffffffff1673ffffffffffffffffffffffffffffffffffffffff1681526020019081526020016000205403600360008673ffffffffffffffffffffffffffffffffffffffff1673ffffffffffffffffffffffffffffffffffffffff1681526020019081526020016000208190555081600360008573ffffffffffffffffffffffffffffffffffffffff1673ffffffffffffffffffffffffffffffffffffffff1681526020019081526020016000205401600360008573ffffffffffffffffffffffffffffffffffffffff1673ffffffffffffffffffffffffffffffffffffffff168152602001908152602001600020819055508273ffffffffffffffffffffffffffffffffffffffff168473ffffffffffffffffffffffffffffffffffffffff167fddf252ad1be2c89b69c2b068fc378daa952ba7f163c4a11628f55a4df523b3ef846040518082815260200191505060405180910390a3600190509392505050565b601281565b600160009054906101000a900473ffffffffffffffffffffffffffffffffffffffff1681565b6000600360008373ffffffffffffffffffffffffffffffffffffffff1673ffffffffffffffffffffffffffffffffffffffff168152602001908152602001600020549050919050565b6000610adf82610a8b565b9050919050565b6000809054906101000a900473ffffffffffffffffffffffffffffffffffffffff1681565b6040518060400160405280600381526020017f425443000000000000000000000000000000000000000000000000000000000081525081565b60003373ffffffffffffffffffffffffffffffffffffffff168373ffffffffffffffffffffffffffffffffffffffff161415610bcb576040517f08c379a000000000000000000000000000000000000000000000000000000000815260040180806020018281038252602f81526020018061106e602f913960400191505060405180910390fd5b600073ffffffffffffffffffffffffffffffffffffffff168373ffffffffffffffffffffffffffffffffffffffff161415610c51576040517f08c379a000000000000000000000000000000000000000000000000000000000815260040180806020018281038252602a815260200180611044602a913960400191505060405180910390fd5b3073ffffffffffffffffffffffffffffffffffffffff168373ffffffffffffffffffffffffffffffffffffffff161415610cd6576040517f08c379a000000000000000000000000000000000000000000000000000000000815260040180806020018281038252602f815260200180610fe8602f913960400191505060405180910390fd5b600360003373ffffffffffffffffffffffffffffffffffffffff1673ffffffffffffffffffffffffffffffffffffffff1681526020019081526020016000205482600360003373ffffffffffffffffffffffffffffffffffffffff1673ffffffffffffffffffffffffffffffffffffffff16815260200190815260200160002054031115610dcc576040517f08c379a00000000000000000000000000000000000000000000000000000000081526004018080602001828103825260178152602001807f4f2073616c646f206520696e737566696369656e74652100000000000000000081525060200191505060405180910390fd5b81600360008573ffffffffffffffffffffffffffffffffffffffff1673ffffffffffffffffffffffffffffffffffffffff1681526020019081526020016000205401600360008573ffffffffffffffffffffffffffffffffffffffff1673ffffffffffffffffffffffffffffffffffffffff168152602001908152602001600020541115610e5957600080fd5b610e6233610ad4565b821115610e6e57600080fd5b81600360003373ffffffffffffffffffffffffffffffffffffffff1673ffffffffffffffffffffffffffffffffffffffff1681526020019081526020016000205403600360003373ffffffffffffffffffffffffffffffffffffffff1673ffffffffffffffffffffffffffffffffffffffff1681526020019081526020016000208190555081600360008573ffffffffffffffffffffffffffffffffffffffff1673ffffffffffffffffffffffffffffffffffffffff1681526020019081526020016000205401600360008573ffffffffffffffffffffffffffffffffffffffff1673ffffffffffffffffffffffffffffffffffffffff168152602001908152602001600020819055508273ffffffffffffffffffffffffffffffffffffffff163373ffffffffffffffffffffffffffffffffffffffff167fddf252ad1be2c89b69c2b068fc378daa952ba7f163c4a11628f55a4df523b3ef846040518082815260200191505060405180910390a3600190509291505056fe4f20636f6e747261746f207461206d616e64616e646f2064696e686569726f207061726120656c65206d65736d6f214f2073616c646f206465207175656d206573746120656e7669616e646f206520696e737566696369656e74652154656e74616e646f207469726172206f2064696e686569726f206465206c75676172206e656e68756d214f2076616c6f722074612073656e646f20656e766961646f207061726120612070726f7072696120706573736f61214f2076616c6f722074612073656e646f20656e766961646f2070617261206c75676172206e656e68756d215472616e73666572696e646f2070617261206f206d65736d6f20656e64657265636f206465206361727465697261214f2076616c6f722074612073656e646f20726574697261646f20646f20636f6e747261746f214f2076616c6f722074612073656e646f20726574697261646f206465206c75676172206e656e68756d216f2076616c6f722074612073656e646f20656e766961646f2070617261206f20656e64657265636f20646f20636f6e747261746f21a165627a7a72305820185f9c93ca1337ae38f0ec4c60893cd194d8695e95a51100901124a84551ad170029",
  "source": "pragma solidity ^0.5.8;\n\n//ERC20 - Interface tokens do Etherium\n\ncontract BasicToken {\n  //eventos\n  event Transfer(address indexed from, address indexed to, uint256 value);\n\n  //dados da moeda\n  string public constant name = \"Bitcoin\";\n  string public constant symbol = \"BTC\";\n  uint8 public constant decimals = 18;\n\n  //dados do contrato\n  address public owner;\n  address public treasury;\n  uint256 public totalSupply;\n\n  //balanco das carteiras\n  mapping(address => uint256) private balances;\n\n  //construtor do contrato\n  constructor () public {\n    owner = msg.sender;\n    treasury = msg.sender;\n    totalSupply = 1000 * 10 ** uint(decimals);\n    balances[treasury] = totalSupply;\n    emit Transfer(address(0), treasury, totalSupply);\n  }\n\n  function() external payable {\n      revert();\n  }\n\n  //visualizar o total de tokens em uma carteira\n  function balanceOf(address _tokenholder) public view returns (uint256 balance) {\n      return balances[_tokenholder];\n  }\n\n  // tirando da carteira que ta chamando a funcao e colocando na carteira que foi informada\n  function transfer(address _to, uint256 _value) public returns (bool) {\n      require(_to != msg.sender, \"O valor ta sendo enviado para a propria pessoa!\");\n      require(_to != address(0), \"Tentando tirar o dinheiro de lugar nenhum!\");\n      require(_to != address(this), \"O contrato ta mandando dinheiro para ele mesmo!\");\n      require(balances[msg.sender] - _value <= balances[msg.sender], \"O saldo e insuficiente!\");\n\n      require(balances[_to] <= balances[_to] + _value);\n      require(_value <= transferableTokens(msg.sender));\n\n      balances[msg.sender] = balances[msg.sender] - _value;\n      balances[_to] = balances[_to] + _value;\n\n      emit Transfer(msg.sender, _to, _value);\n      return true;\n  }\n\n  //transfere entre carteiras diferentes da carteira que ta chamando a funcao\n  function transferFrom(address _from, address _to, uint256 _value) public returns (bool) {\n      require(_from != address(0), \"O valor ta sendo retirado de lugar nenhum!\");\n      require(_from != address(this), \"O valor ta sendo retirado do contrato!\");\n      require(_to != _from, \"Transferindo para o mesmo endereco de carteira!\");\n      require(_to != address(0), \"O valor ta sendo enviado para lugar nenhum!\");\n      require(_to != address(this), \"o valor ta sendo enviado para o endereco do contrato!\");\n\n      require(_value <= transferableTokens(_from));\n      require(balances[_from] - _value <= balances[_from], \"O saldo de quem esta enviando e insuficiente!\");\n      require(balances[_to] <= balances[_to] + _value);\n\n      balances[_from] = balances[_from] - _value;\n      balances[_to] = balances[_to] + _value;\n\n      emit Transfer(_from, _to, _value);\n      return true;\n  }\n\n  function transferableTokens(address holder) public view returns (uint256) {\n      return balanceOf(holder);\n  }\n}\n",
  "sourcePath": "/home/lobonegro/Desktop/estudo-blockchain/projeto-um/contratos-inteligentes/contracts/BasicToken.sol",
  "compiler": {
    "name": "solc",
    "version": "0.5.8+commit.23d335f2.Emscripten.clang"
  },
  "schemaVersion": "3.4.0",
  "updatedAt": "2021-05-16T01:29:57.592Z",
  "networkType": "ethereum",
  "devdoc": {
    "methods": {}
  },
  "userdoc": {
    "methods": {}
  }
}