{
  "contractName": "Comments",
  "abi": [
    {
      "constant": true,
      "inputs": [],
      "name": "authority",
      "outputs": [
        {
          "name": "",
          "type": "address"
        }
      ],
      "payable": false,
      "stateMutability": "view",
      "type": "function"
    },
    {
      "inputs": [],
      "payable": false,
      "stateMutability": "nonpayable",
      "type": "constructor"
    },
    {
      "anonymous": false,
      "inputs": [
        {
          "indexed": false,
          "name": "asset",
          "type": "string"
        },
        {
          "indexed": false,
          "name": "comment",
          "type": "string"
        }
      ],
      "name": "Comment",
      "type": "event"
    },
    {
      "constant": false,
      "inputs": [
        {
          "name": "asset",
          "type": "string"
        },
        {
          "name": "comment",
          "type": "string"
        }
      ],
      "name": "postComment",
      "outputs": [],
      "payable": false,
      "stateMutability": "nonpayable",
      "type": "function"
    }
  ],
  "bytecode": "0x608060405234801561001057600080fd5b50336000806101000a81548173ffffffffffffffffffffffffffffffffffffffff021916908373ffffffffffffffffffffffffffffffffffffffff160217905550610335806100606000396000f3fe608060405234801561001057600080fd5b50600436106100365760003560e01c8063a23b44931461003b578063bf7e214f1461018d575b600080fd5b61018b6004803603604081101561005157600080fd5b810190808035906020019064010000000081111561006e57600080fd5b82018360208201111561008057600080fd5b803590602001918460018302840111640100000000831117156100a257600080fd5b91908080601f016020809104026020016040519081016040528093929190818152602001838380828437600081840152601f19601f8201169050808301925050505050505091929192908035906020019064010000000081111561010557600080fd5b82018360208201111561011757600080fd5b8035906020019184600183028401116401000000008311171561013957600080fd5b91908080601f016020809104026020016040519081016040528093929190818152602001838380828437600081840152601f19601f8201169050808301925050505050505091929192905050506101d7565b005b6101956102e4565b604051808273ffffffffffffffffffffffffffffffffffffffff1673ffffffffffffffffffffffffffffffffffffffff16815260200191505060405180910390f35b7f02303e4b164929a476ccdfa5334a2c8ec7d1c0b762acd0fc78317d4d9d50dc7b8282604051808060200180602001838103835285818151815260200191508051906020019080838360005b8381101561023e578082015181840152602081019050610223565b50505050905090810190601f16801561026b5780820380516001836020036101000a031916815260200191505b50838103825284818151815260200191508051906020019080838360005b838110156102a4578082015181840152602081019050610289565b50505050905090810190601f1680156102d15780820380516001836020036101000a031916815260200191505b5094505050505060405180910390a15050565b6000809054906101000a900473ffffffffffffffffffffffffffffffffffffffff168156fea165627a7a72305820f313a02f60a3ab7122688cfc0f7613c45978884af6cfe781344e97eb7ce614740029",
  "source": "pragma solidity ^0.5.8;\n\ncontract Comments {\n    event Comment(string asset, string comment);\n    address public authority;\n\n    constructor() public {\n        authority = msg.sender;\n    }\n\n    function postComment(string memory asset, string memory comment) public {\n        emit Comment(asset, comment);\n    }\n}\n",
  "sourcePath": "/home/lobonegro/Desktop/estudo-blockchain/projeto-um/contratos-inteligentes/contracts/Comments.sol",
  "compiler": {
    "name": "solc",
    "version": "0.5.8+commit.23d335f2.Emscripten.clang"
  },
  "schemaVersion": "3.4.0",
  "updatedAt": "2021-05-16T01:29:58.102Z",
  "networkType": "ethereum",
  "devdoc": {
    "methods": {}
  },
  "userdoc": {
    "methods": {}
  }
}