{
  "contractName": "Purchasing",
  "abi": [
    {
      "constant": true,
      "inputs": [
        {
          "name": "",
          "type": "string"
        }
      ],
      "name": "productList",
      "outputs": [
        {
          "name": "quantity",
          "type": "uint256"
        },
        {
          "name": "url",
          "type": "string"
        },
        {
          "name": "description",
          "type": "string"
        },
        {
          "name": "price",
          "type": "string"
        },
        {
          "name": "company",
          "type": "string"
        },
        {
          "name": "id",
          "type": "string"
        },
        {
          "name": "isSet",
          "type": "bool"
        }
      ],
      "payable": false,
      "stateMutability": "view",
      "type": "function"
    },
    {
      "constant": true,
      "inputs": [],
      "name": "authority",
      "outputs": [
        {
          "name": "",
          "type": "address"
        }
      ],
      "payable": false,
      "stateMutability": "view",
      "type": "function"
    },
    {
      "inputs": [],
      "payable": false,
      "stateMutability": "nonpayable",
      "type": "constructor"
    },
    {
      "anonymous": false,
      "inputs": [
        {
          "indexed": false,
          "name": "product",
          "type": "string"
        },
        {
          "indexed": false,
          "name": "quantity",
          "type": "uint256"
        },
        {
          "indexed": false,
          "name": "url",
          "type": "string"
        },
        {
          "indexed": false,
          "name": "price",
          "type": "string"
        },
        {
          "indexed": false,
          "name": "description",
          "type": "string"
        },
        {
          "indexed": false,
          "name": "company",
          "type": "string"
        },
        {
          "indexed": false,
          "name": "id",
          "type": "string"
        }
      ],
      "name": "Product",
      "type": "event"
    },
    {
      "anonymous": false,
      "inputs": [
        {
          "indexed": false,
          "name": "product",
          "type": "string"
        },
        {
          "indexed": false,
          "name": "quantity",
          "type": "uint256"
        }
      ],
      "name": "ProductAddQuantity",
      "type": "event"
    },
    {
      "anonymous": false,
      "inputs": [
        {
          "indexed": false,
          "name": "product",
          "type": "string"
        },
        {
          "indexed": false,
          "name": "purchaser",
          "type": "address"
        }
      ],
      "name": "ProductPurchaser",
      "type": "event"
    },
    {
      "constant": false,
      "inputs": [
        {
          "name": "product",
          "type": "string"
        },
        {
          "name": "addQuantity",
          "type": "uint256"
        },
        {
          "name": "url",
          "type": "string"
        },
        {
          "name": "description",
          "type": "string"
        },
        {
          "name": "price",
          "type": "string"
        },
        {
          "name": "company",
          "type": "string"
        },
        {
          "name": "id",
          "type": "string"
        }
      ],
      "name": "addProduct",
      "outputs": [],
      "payable": false,
      "stateMutability": "nonpayable",
      "type": "function"
    },
    {
      "constant": false,
      "inputs": [
        {
          "name": "product",
          "type": "string"
        },
        {
          "name": "addQuantity",
          "type": "uint256"
        }
      ],
      "name": "addProductQuantity",
      "outputs": [],
      "payable": false,
      "stateMutability": "nonpayable",
      "type": "function"
    },
    {
      "constant": false,
      "inputs": [
        {
          "name": "product",
          "type": "string"
        },
        {
          "name": "purchaser",
          "type": "address"
        }
      ],
      "name": "purchaseProduct",
      "outputs": [],
      "payable": false,
      "stateMutability": "nonpayable",
      "type": "function"
    },
    {
      "constant": true,
      "inputs": [
        {
          "name": "product",
          "type": "string"
        }
      ],
      "name": "getPurchasers",
      "outputs": [
        {
          "name": "purchasers",
          "type": "address[]"
        }
      ],
      "payable": false,
      "stateMutability": "view",
      "type": "function"
    }
  ],
  "bytecode": "0x608060405234801561001057600080fd5b5033600160006101000a81548173ffffffffffffffffffffffffffffffffffffffff021916908373ffffffffffffffffffffffffffffffffffffffff160217905550611a3f806100616000396000f3fe608060405234801561001057600080fd5b50600436106100625760003560e01c80630f0c782e146100675780630f6af9c41461014257806353e2e4ea146104385780637b61affe146104fd578063bf7e214f1461060d578063e319bc7314610657575b600080fd5b6101406004803603604081101561007d57600080fd5b810190808035906020019064010000000081111561009a57600080fd5b8201836020820111156100ac57600080fd5b803590602001918460018302840111640100000000831117156100ce57600080fd5b91908080601f016020809104026020016040519081016040528093929190818152602001838380828437600081840152601f19601f820116905080830192505050505050509192919290803573ffffffffffffffffffffffffffffffffffffffff169060200190929190505050610a0f565b005b6101fb6004803603602081101561015857600080fd5b810190808035906020019064010000000081111561017557600080fd5b82018360208201111561018757600080fd5b803590602001918460018302840111640100000000831117156101a957600080fd5b91908080601f016020809104026020016040519081016040528093929190818152602001838380828437600081840152601f19601f820116905080830192505050505050509192919290505050610c9a565b6040518088815260200180602001806020018060200180602001806020018715151515815260200186810386528c818151815260200191508051906020019080838360005b8381101561025b578082015181840152602081019050610240565b50505050905090810190601f1680156102885780820380516001836020036101000a031916815260200191505b5086810385528b818151815260200191508051906020019080838360005b838110156102c15780820151818401526020810190506102a6565b50505050905090810190601f1680156102ee5780820380516001836020036101000a031916815260200191505b5086810384528a818151815260200191508051906020019080838360005b8381101561032757808201518184015260208101905061030c565b50505050905090810190601f1680156103545780820380516001836020036101000a031916815260200191505b50868103835289818151815260200191508051906020019080838360005b8381101561038d578082015181840152602081019050610372565b50505050905090810190601f1680156103ba5780820380516001836020036101000a031916815260200191505b50868103825288818151815260200191508051906020019080838360005b838110156103f35780820151818401526020810190506103d8565b50505050905090810190601f1680156104205780820380516001836020036101000a031916815260200191505b509c5050505050505050505050505060405180910390f35b6104fb6004803603604081101561044e57600080fd5b810190808035906020019064010000000081111561046b57600080fd5b82018360208201111561047d57600080fd5b8035906020019184600183028401116401000000008311171561049f57600080fd5b91908080601f016020809104026020016040519081016040528093929190818152602001838380828437600081840152601f19601f82011690508083019250505050505050919291929080359060200190929190505050610ff7565b005b6105b66004803603602081101561051357600080fd5b810190808035906020019064010000000081111561053057600080fd5b82018360208201111561054257600080fd5b8035906020019184600183028401116401000000008311171561056457600080fd5b91908080601f016020809104026020016040519081016040528093929190818152602001838380828437600081840152601f19601f820116905080830192505050505050509192919290505050611205565b6040518080602001828103825283818151815260200191508051906020019060200280838360005b838110156105f95780820151818401526020810190506105de565b505050509050019250505060405180910390f35b6106156112ff565b604051808273ffffffffffffffffffffffffffffffffffffffff1673ffffffffffffffffffffffffffffffffffffffff16815260200191505060405180910390f35b610a0d600480360360e081101561066d57600080fd5b810190808035906020019064010000000081111561068a57600080fd5b82018360208201111561069c57600080fd5b803590602001918460018302840111640100000000831117156106be57600080fd5b91908080601f016020809104026020016040519081016040528093929190818152602001838380828437600081840152601f19601f820116905080830192505050505050509192919290803590602001909291908035906020019064010000000081111561072b57600080fd5b82018360208201111561073d57600080fd5b8035906020019184600183028401116401000000008311171561075f57600080fd5b91908080601f016020809104026020016040519081016040528093929190818152602001838380828437600081840152601f19601f820116905080830192505050505050509192919290803590602001906401000000008111156107c257600080fd5b8201836020820111156107d457600080fd5b803590602001918460018302840111640100000000831117156107f657600080fd5b91908080601f016020809104026020016040519081016040528093929190818152602001838380828437600081840152601f19601f8201169050808301925050505050505091929192908035906020019064010000000081111561085957600080fd5b82018360208201111561086b57600080fd5b8035906020019184600183028401116401000000008311171561088d57600080fd5b91908080601f016020809104026020016040519081016040528093929190818152602001838380828437600081840152601f19601f820116905080830192505050505050509192919290803590602001906401000000008111156108f057600080fd5b82018360208201111561090257600080fd5b8035906020019184600183028401116401000000008311171561092457600080fd5b91908080601f016020809104026020016040519081016040528093929190818152602001838380828437600081840152601f19601f8201169050808301925050505050505091929192908035906020019064010000000081111561098757600080fd5b82018360208201111561099957600080fd5b803590602001918460018302840111640100000000831117156109bb57600080fd5b91908080601f016020809104026020016040519081016040528093929190818152602001838380828437600081840152601f19601f820116905080830192505050505050509192919290505050611325565b005b6000826040518082805190602001908083835b60208310610a455780518252602082019150602081019050602083039250610a22565b6001836020036101000a0380198251168184511680821785525050505050509050019150509081526020016040518091039020600001546000836040518082805190602001908083835b60208310610ab25780518252602082019150602081019050602083039250610a8f565b6001836020036101000a03801982511681845116808217855250505050505090500191505090815260200160405180910390206001018054905010610af657600080fd5b6000826040518082805190602001908083835b60208310610b2c5780518252602082019150602081019050602083039250610b09565b6001836020036101000a03801982511681845116808217855250505050505090500191505090815260200160405180910390206001018190806001815401808255809150509060018203906000526020600020016000909192909190916101000a81548173ffffffffffffffffffffffffffffffffffffffff021916908373ffffffffffffffffffffffffffffffffffffffff160217905550507fba6ea2a4b28a08d6d08fc8c3dd106667a232f28ad782dbdd839bc819dffd36cf828260405180806020018373ffffffffffffffffffffffffffffffffffffffff1673ffffffffffffffffffffffffffffffffffffffff168152602001828103825284818151815260200191508051906020019080838360005b83811015610c5b578082015181840152602081019050610c40565b50505050905090810190601f168015610c885780820380516001836020036101000a031916815260200191505b50935050505060405180910390a15050565b600081805160208101820180518482526020830160208501208183528095505050505050600091509050806000015490806002018054600181600116156101000203166002900480601f016020809104026020016040519081016040528092919081815260200182805460018160011615610100020316600290048015610d625780601f10610d3757610100808354040283529160200191610d62565b820191906000526020600020905b815481529060010190602001808311610d4557829003601f168201915b505050505090806003018054600181600116156101000203166002900480601f016020809104026020016040519081016040528092919081815260200182805460018160011615610100020316600290048015610e005780601f10610dd557610100808354040283529160200191610e00565b820191906000526020600020905b815481529060010190602001808311610de357829003601f168201915b505050505090806004018054600181600116156101000203166002900480601f016020809104026020016040519081016040528092919081815260200182805460018160011615610100020316600290048015610e9e5780601f10610e7357610100808354040283529160200191610e9e565b820191906000526020600020905b815481529060010190602001808311610e8157829003601f168201915b505050505090806005018054600181600116156101000203166002900480601f016020809104026020016040519081016040528092919081815260200182805460018160011615610100020316600290048015610f3c5780601f10610f1157610100808354040283529160200191610f3c565b820191906000526020600020905b815481529060010190602001808311610f1f57829003601f168201915b505050505090806006018054600181600116156101000203166002900480601f016020809104026020016040519081016040528092919081815260200182805460018160011615610100020316600290048015610fda5780601f10610faf57610100808354040283529160200191610fda565b820191906000526020600020905b815481529060010190602001808311610fbd57829003601f168201915b5050505050908060070160009054906101000a900460ff16905087565b6000826040518082805190602001908083835b6020831061102d578051825260208201915060208101905060208303925061100a565b6001836020036101000a038019825116818451168082178552505050505050905001915050908152602001604051809103902060070160009054906101000a900460ff166110e3576040517f08c379a000000000000000000000000000000000000000000000000000000000815260040180806020018281038252601c8152602001807f50726f6475746f206e616f206573746120646973706f6e6976656c210000000081525060200191505060405180910390fd5b806000836040518082805190602001908083835b6020831061111a57805182526020820191506020810190506020830392506110f7565b6001836020036101000a0380198251168184511680821785525050505050509050019150509081526020016040518091039020600001600082825401925050819055507f441ec9d8034b8b13fe80cf862b2eb0c197ee7d9bac2117bc54ffca0b71c6950282826040518080602001838152602001828103825284818151815260200191508051906020019080838360005b838110156111c65780820151818401526020810190506111ab565b50505050905090810190601f1680156111f35780820380516001836020036101000a031916815260200191505b50935050505060405180910390a15050565b60606000826040518082805190602001908083835b6020831061123d578051825260208201915060208101905060208303925061121a565b6001836020036101000a03801982511681845116808217855250505050505090500191505090815260200160405180910390206001018054806020026020016040519081016040528092919081815260200182805480156112f357602002820191906000526020600020905b8160009054906101000a900473ffffffffffffffffffffffffffffffffffffffff1673ffffffffffffffffffffffffffffffffffffffff16815260200190600101908083116112a9575b50505050509050919050565b600160009054906101000a900473ffffffffffffffffffffffffffffffffffffffff1681565b856000886040518082805190602001908083835b6020831061135c5780518252602082019150602081019050602083039250611339565b6001836020036101000a038019825116818451168082178552505050505050905001915050908152602001604051809103902060000181905550846000886040518082805190602001908083835b602083106113cd57805182526020820191506020810190506020830392506113aa565b6001836020036101000a0380198251168184511680821785525050505050509050019150509081526020016040518091039020600201908051906020019061141692919061196e565b50826000886040518082805190602001908083835b6020831061144e578051825260208201915060208101905060208303925061142b565b6001836020036101000a0380198251168184511680821785525050505050509050019150509081526020016040518091039020600401908051906020019061149792919061196e565b50836000886040518082805190602001908083835b602083106114cf57805182526020820191506020810190506020830392506114ac565b6001836020036101000a0380198251168184511680821785525050505050509050019150509081526020016040518091039020600301908051906020019061151892919061196e565b50816000886040518082805190602001908083835b60208310611550578051825260208201915060208101905060208303925061152d565b6001836020036101000a0380198251168184511680821785525050505050509050019150509081526020016040518091039020600501908051906020019061159992919061196e565b50806000886040518082805190602001908083835b602083106115d157805182526020820191506020810190506020830392506115ae565b6001836020036101000a0380198251168184511680821785525050505050509050019150509081526020016040518091039020600601908051906020019061161a92919061196e565b5060016000886040518082805190602001908083835b602083106116535780518252602082019150602081019050602083039250611630565b6001836020036101000a038019825116818451168082178552505050505050905001915050908152602001604051809103902060070160006101000a81548160ff0219169083151502179055507f3d8ad89303fc9c4d5ba3218e3cb881a4f94e91a5bac2bf6d8d9a1733671a622f878787868887876040518080602001888152602001806020018060200180602001806020018060200187810387528e818151815260200191508051906020019080838360005b83811015611722578082015181840152602081019050611707565b50505050905090810190601f16801561174f5780820380516001836020036101000a031916815260200191505b5087810386528c818151815260200191508051906020019080838360005b8381101561178857808201518184015260208101905061176d565b50505050905090810190601f1680156117b55780820380516001836020036101000a031916815260200191505b5087810385528b818151815260200191508051906020019080838360005b838110156117ee5780820151818401526020810190506117d3565b50505050905090810190601f16801561181b5780820380516001836020036101000a031916815260200191505b5087810384528a818151815260200191508051906020019080838360005b83811015611854578082015181840152602081019050611839565b50505050905090810190601f1680156118815780820380516001836020036101000a031916815260200191505b50878103835289818151815260200191508051906020019080838360005b838110156118ba57808201518184015260208101905061189f565b50505050905090810190601f1680156118e75780820380516001836020036101000a031916815260200191505b50878103825288818151815260200191508051906020019080838360005b83811015611920578082015181840152602081019050611905565b50505050905090810190601f16801561194d5780820380516001836020036101000a031916815260200191505b509d505050505050505050505050505060405180910390a150505050505050565b828054600181600116156101000203166002900490600052602060002090601f016020900481019282601f106119af57805160ff19168380011785556119dd565b828001600101855582156119dd579182015b828111156119dc5782518255916020019190600101906119c1565b5b5090506119ea91906119ee565b5090565b611a1091905b80821115611a0c5760008160009055506001016119f4565b5090565b9056fea165627a7a7230582069ddd4cd9bce37219ece677cb155111975e9706145dad76f34c9f22b01a1563e0029",
  "source": "\npragma solidity ^0.5.8;\n\ncontract Purchasing {\n    //eventos producao e debug\n    event Product(string product, uint quantity, string url, string price, string description, string company, string id);\n    event ProductAddQuantity(string product, uint quantity);\n    event ProductPurchaser(string product, address purchaser);\n\n    //detalhes do produto\n    struct ProductDetails {\n        uint quantity;\n        address[] purchasers;\n        string url;\n        string description;\n        string price;\n        string company;\n        string id;\n        bool isSet;\n    }\n\n    //lista de produtos\n    mapping(string => ProductDetails) public productList;\n    address public authority; //loja\n\n    //constructor\n    constructor() public {\n        authority = msg.sender;\n    }\n\n    //adicionar um produto\n    function addProduct(string memory product, uint addQuantity, string memory url, string memory description, string memory price, string memory company, string memory id) public {\n        productList[product].quantity = addQuantity;\n        productList[product].url = url;\n        productList[product].price = price;\n        productList[product].description = description;\n        productList[product].company = company;\n        productList[product].id = id;\n        productList[product].isSet = true;\n\n        emit Product(product, addQuantity, url, price, description, company, id);\n    }\n\n    //adicionar uma quantidade de produtos num produto ja cadastrado\n    function addProductQuantity(string memory product, uint addQuantity) public {\n        require(productList[product].isSet, \"Produto nao esta disponivel!\");\n        productList[product].quantity += addQuantity;\n\n        emit ProductAddQuantity(product, addQuantity);\n    }\n\n    //adicionar comprador na lista de compradores do produto\n    function purchaseProduct(string memory product, address purchaser) public {\n        require(productList[product].purchasers.length < productList[product].quantity);\n        productList[product].purchasers.push(purchaser);\n\n        emit ProductPurchaser(product, purchaser);\n    }\n\n    //ver a lista de compradores de um produto\n    function getPurchasers(string memory product) public view returns (address[] memory purchasers) {\n        return productList[product].purchasers;\n    }\n}\n",
  "sourcePath": "/home/lobonegro/Desktop/estudo-blockchain/projeto-um/contratos-inteligentes/contracts/Purchasing.sol",
  "compiler": {
    "name": "solc",
    "version": "0.5.8+commit.23d335f2.Emscripten.clang"
  },
  "schemaVersion": "3.4.0",
  "updatedAt": "2021-05-16T01:29:58.800Z",
  "networkType": "ethereum",
  "devdoc": {
    "methods": {}
  },
  "userdoc": {
    "methods": {}
  }
}